:100000000C9429110C9453110C9453110C9453110A
:100010000C9453110C9453110C9453110C945311D0
:100020000C9453110C9453110C9467BF0C94E4BFBF
:100030000C9453110C9453110C9453110C945311B0
:100040000C9453110C9462910C9453110C94531111
:100050000C9453110C9453110C942AAA0C94C6BE00
:100060000C9453110C9453110C9453110C94531180
:100070000C9453110C9453110C9453110C94531170
:100080000C9453110C9453110C9453110C94531160
:100090000C946DB90C94531155BC81BCA3BCA3BC8A
:1000A000A3BCA3BCA3BCA3BCA3BCA3BCA3BCA3BC58
:1000B000A3BCA3BC99BC91BC89BCA3BCA3BCA3BC7E
:1000C000A3BCA3BCA3BCA3BC7BBC61BC69BC73BC0C
:1000D000084AD73B3BCE016E84BCBFFDC12F3D6CAF
:1000E00074319ABD56833DDA3D00C77F11BED9E415
:1000F000BB4C3E916BAAAABE000000803F05A84CF5
:10010000CDB2D44EB93836A9020C50B991868808C0
:100110003CA6AAAA2ABE000000803F004E414E49DC
:100120004E495459494E46CDCCCC3D0AD7233C17B5
:10013000B7D13877CC2B329595E6241FB14F0A0002
:100140000020410000C84200401C4620BCBE4CCAF2
:100150001B0E5AAEC59D74446F6E6520736176693F
:100160006E672066696C652E0A004D3239002020CA
:10017000506C616E6E657242756666657242797426
:1001800065733A20002046726565204D656D6F727B
:10019000793A2000436F6D70696C65643A2044655C
:1001A0006320313420323032300A00207C20417507
:1001B00074686F723A202844722E5068696C334418
:1001C000290A00323032302D30362D323000204CAA
:1001D00061737420557064617465643A2000312E37
:1001E000312E392E310A004D61726C696E00205338
:1001F0006F6674776172652052657365740A0020BA
:100200005761746368646F672052657365740A0090
:100210002042726F776E206F75742052657365741B
:100220000A002045787465726E616C2052657365B2
:10023000740A00506F77657255700A0073746172AA
:10024000740A005072696E7465722068616C74651E
:10025000642E206B696C6C28292063616C6C65646A
:10026000210A004B494C4C45442E20004B494C4C34
:100270002063617573656420627920746F6F206DEF
:1002800075636820696E6163746976652074696D51
:1002900065202D2063757272656E7420636F6D6DBD
:1002A000616E643A200020746F6F206C6F6E67205F
:1002B000657874727573696F6E2070726576656E9D
:1002C0007465640A0020636F6C64206578747275CD
:1002D00073696F6E2070726576656E7465640A006E
:1002E0006F6B00526573656E643A20003A0043619B
:1002F000703A0000011C1D132FFFFFFFFF1E1F128D
:10030000FF18FFFFFF20211124FFFFFFFFFFFFFF6A
:100310000E10FFFFFF22230DFFFFFF0E260F2C28DC
:100320004163746976652045787472756465723AC4
:10033000200020453A00205A3A0020593A00583A05
:10034000002C20002C2000627573793A20706175B2
:1003500073656420666F7220696E7075740A00623E
:100360007573793A2070617573656420666F7220C9
:10037000757365720A00627573793A2070726F63E3
:10038000657373696E670A0050726F62696E6720E9
:100390006661696C65640A00205A3A200020593A67
:1003A000200042656420583A200020666972737408
:1003B0000A005A0059005800486F6D652000204916
:1003C0006E76616C696420657874727564657220FC
:1003D00000656E7175657565696E67202200496EEE
:1003E00076616C69642065787472756465720A0060
:1003F0004E6F2063617365206C696768740A004101
:100400006476616E6365204B3D003F4B2076616CE6
:100410007565206F7574206F662072616E67652048
:1004200028302D3130292E0A003A200050726F6298
:1004300065205A204F6666736574003F5A206F75B9
:1004400074206F662072616E676520282D342074D9
:100450006F203230290A00454550524F4D204F4BF6
:100460000A00546F6F206661722066726F6D207291
:1004700065666572656E636520706F696E740A00EB
:10048000426564204C6576656C696E672000466144
:10049000696C656420746F20656E61626C652042D2
:1004A0006564204C6576656C696E670A0042656418
:1004B000204C6576656C20436F7272656374696F5A
:1004C0006E204D61747269783A0043290A006162B6
:1004D0006C656420286D696E2074656D7020004322
:1004E0006F6C6420657874727564657320617265E1
:1004F000200020643A0020693A0020703A00496EDA
:1005000076616C69642065787472756465720A003E
:1005100020633A0020643A0020693A0020703A00D3
:1005200050726F6265205A204F66667365743A2078
:100530000020466C6F773A2000205A00205900585E
:100540000020204D61783A2000205A0020590058A0
:100550000020204D696E3A20004F6666004F6E20E5
:1005600000536F667420656E6473746F70733A2005
:1005700000205400205200416363656C6572617411
:10058000696F6E3A2050002F2F2000544845524D7D
:10059000414C5F50524F54454354494F4E004155D2
:1005A000544F5245504F52545F53445F535441543B
:1005B000555300454D455247454E43595F504152B2
:1005C00053455200434153455F4C494748545F42AD
:1005D00052494748544E45535300544F47474C45A2
:1005E0005F4C494748545300534F46545741524576
:1005F0005F504F574552004255494C445F50455259
:1006000043454E54004C4556454C494E475F444186
:100610005441005A5F50524F4245004155544F4C8F
:100620004556454C005052494E545F4A4F42005087
:10063000524F4752455353004155544F5245504F26
:1006400052545F54454D5000564F4C554D455452F1
:10065000494300454550524F4D0053455249414C86
:100660005F584F4E5F584F4646004649524D5741DE
:1006700052455F4E414D453A4D61726C696E203175
:100680002E312E392E312028476974687562292051
:10069000534F555243455F434F44455F55524C3A83
:1006A00068747470733A2F2F6769746875622E636B
:1006B0006F6D2F4D61726C696E4669726D776172F4
:1006C000652F4D61726C696E2050524F544F434FED
:1006D0004C5F56455253494F4E3A312E30204D41D2
:1006E0004348494E455F545950453A5072696E74BB
:1006F00072626F742053696D706C65204D65746112
:100700006C2045585452554445525F434F554E5402
:100710003A3120555549443A3430636536316431B5
:100720002D326564302D343533302D383330342D4F
:100730003535653365656161656266660A004D3110
:1007400031332053006F66660044454255473A00F6
:100750007B0776076F0768075A07434F4D4D554E85
:1007600049434154494F4E0044525952554E004559
:1007700052524F525300494E464F004543484F0096
:1007800020573A0020573A004B494C4C45442E2004
:10079000006F6B0050726F746563746564205069FC
:1007A0006E0A005072696E742074696D653A20009B
:1007B00043757272656E742066696C653A200045F7
:1007C0006E642066696C65206C6973740A0042650A
:1007D00067696E2066696C65206C6973740A002015
:1007E0005A3A200020593A200042656420583A20A5
:1007F000000A0A426564204C6576656C20436F727E
:1008000072656374696F6E204D61747269783A0025
:10081000202844525952554E2900473239204175FB
:10082000746F20426564204C6576656C696E670064
:100830003F2856296572626F7365206C6576656C1A
:1008400020697320696D706C61757369626C6520D5
:1008500028302D34292E0A00486F6D652058592004
:1008600066697273740A0047322F473320626164ED
:1008700020706172616D65746572730A00576172F0
:100880006E696E673A20486F6D696E672042756DBC
:10089000702044697669736F72203C20310A00022F
:1008A000020453442072656164206572726F720A9B
:1008B00000446F6E65207072696E74696E672066A1
:1008C000696C650A004B494C4C45442E200050721F
:1008D000696E7465722073746F70706564206475DE
:1008E0006520746F206572726F72732E204669786E
:1008F00020746865206572726F7220616E64207565
:100900007365204D39393920746F207265737461B5
:1009100072742E202854656D7065726174757265ED
:100920002069732072657365742E20536574206985
:100930007420616674657220726573746172746983
:100940006E67290A004E6F20436865636B73756D8F
:100950002077697468206C696E65206E756D6265BC
:10096000722C204C617374204C696E653A20004EE5
:100970006F20436865636B73756D207769746820B9
:100980006C696E65206E756D6265722C204C6173AA
:1009900074204C696E653A2000636865636B7375FB
:1009A0006D206D69736D617463682C204C61737484
:1009B000204C696E653A20004C696E65204E756D5D
:1009C000626572206973206E6F74204C61737420AD
:1009D0004C696E65204E756D6265722B312C204C12
:1009E000617374204C696E653A20004D31313000DE
:1009F000FF01FF0000A0400000A0400000004000F8
:100A000000184300007A4300001843000000000073
:100A1000007A43000000000000184300007A430001
:100A2000001843000000000000000000000000006B
:100A300000484200004842000080400000000025BD
:100A400069730025696D2025697300256968202573
:100A5000696D202569730025696420256968202552
:100A6000696D202569730025697920256964202531
:100A700069682025696D20256973007C3C3E5E2BEA
:100A80003D3F2F5B5D3B2C2A225C004D3331006FD4
:100A900070656E206661696C65642C2046696C65C2
:100AA0003A20006175746F25692E67006572726F58
:100AB000722077726974696E6720746F2066696C42
:100AC000650A004E6F74205344207072696E746919
:100AD0006E670A005344207072696E74696E6720F5
:100AE00062797465200044656C6574696F6E206678
:100AF00061696C65642C2046696C653A2000466922
:100B00006C652064656C657465643A00577269743D
:100B1000696E6720746F2066696C653A20006F709B
:100B2000656E206661696C65642C2046696C653A67
:100B300020006F70656E206661696C65642C2046CC
:100B4000696C653A200046696C652073656C656365
:100B50007465640A002053697A653A200046696C1E
:100B600065206F70656E65643A20002066696C656B
:100B70003A2000667265736800646F696E67004EA4
:100B80006F772000454E4420535542524F555449EB
:100B90004E450A002220706F73002220706172653A
:100BA0006E743A2200535542524F5554494E4520D7
:100BB00043414C4C207461726765743A22004B4982
:100BC0004C4C45442E2000747279696E6720746F16
:100BD0002063616C6C207375622D67636F646520A0
:100BE00066696C6573207769746820746F6F206D17
:100BF000616E79206C6576656C732E204D415820AE
:100C00006C6576656C2069733A004D3234004D3264
:100C1000332025730053442063617264206F6B0A94
:100C2000006F70656E526F6F74206661696C6564E9
:100C30000A00766F6C756D652E696E697420666149
:100C4000696C65640A00534420696E6974206661AA
:100C5000696C0A00286E6F2066696C652900436123
:100C60006E6E6F74206F70656E207375626469724A
:100C7000200020204D393030204B004C696E6561DA
:100C80007220416476616E63653A0A0020204D3817
:100C90003531205A005A2D50726F6265204F6666BA
:100CA0007365740020440020490020204D33303407
:100CB000205000204C002043002044002049002008
:100CC000204D3330312050005049442073657474F6
:100CD000696E67733A0A0020204D34323020530089
:100CE0004175746F20426564204C6576656C696E51
:100CF000673A0A00205A0020590020204D32303631
:100D0000205800486F6D65206F66667365743A0AF7
:100D100000204500205A002059002058002054008F
:100D200020530020204D32303520510020453C6DAD
:100D300061785F655F6A65726B3E0020583C6D614B
:100D4000785F785F6A65726B3E20593C6D61785FB1
:100D5000795F6A65726B3E205A3C6D61785F7A5F9D
:100D60006A65726B3E00416476616E6365643A2029
:100D7000513C6D696E5F7365676D656E745F746914
:100D80006D655F75733E20533C6D696E5F6665658A
:100D900064726174653E20543C6D696E5F7472616B
:100DA00076656C5F66656564726174653E002054AB
:100DB0000020520020204D32303420500041636327
:100DC000656C65726174696F6E2028756E697473E5
:100DD0002F7332293A20503C7072696E745F6163E0
:100DE00063656C3E20523C726574726163745F612E
:100DF0006363656C3E20543C74726176656C5F6120
:100E00006363656C3E0A00204500205A00205900AB
:100E100020204D3230312058004D6178696D756D5C
:100E200020416363656C65726174696F6E2028751B
:100E30006E6974732F7332293A0A00204500205AD4
:100E40000020590020204D3230332058004D617869
:100E5000696D756D206665656472617465732028BF
:100E6000756E6974732F73293A0A00204500205A61
:100E70000020590020204D393220580053746570ED
:100E8000732070657220756E69743A0A0020204DD7
:100E90003230302044300A0020204D32303020449F
:100EA000002044697361626C65640A0046696C6184
:100EB0006D656E742073657474696E67733A002093
:100EC00020473231202020203B0048617264636F4C
:100ED0006465642044656661756C74205365747440
:100EE000696E6773204C6F616465640A00D0070007
:100EF00000D007000064000000102700000000166A
:100F000043000016430000E040000020420000A023
:100F1000420000A0420080FC440000BD42290A00BB
:100F20002062797465733B206372632000207374C0
:100F30006F7265642073657474696E67732072657F
:100F400074726965766564202800202863616C638B
:100F5000756C6174656429210A0020213D200045DB
:100F60004550524F4D20435243206D69736D61745B
:100F70006368202D202873746F7265642920002017
:100F800053697A653A2000496E6465783A200020FA
:100F90004D61726C696E3D563536290A002845450B
:100FA00050524F4D3D00454550524F4D2076657291
:100FB00073696F6E206D69736D61746368200029B9
:100FC0000A002062797465733B20637263200053CA
:100FD000657474696E67732053746F72656420283A
:100FE00000454550524F4D206461746173697A65C4
:100FF000206572726F722E0A004572726F722077CE
:10100000726974696E6720746F20454550524F4D68
:10101000210A003A0A0020286D6D29006F70656E64
:1010200000545249474745524544003A20007A5FF0
:101030006D696E00795F6D617800785F6D696E0033
:101040005265706F7274696E6720656E6473746F39
:1010500070207374617475730A00205A3A00205925
:101060003A0020583A00656E6473746F707320689C
:1010700069743A2000486F6D696E67206661696C1B
:10108000656400556E6B6E6F776E20636F6D6D617A
:101090006E643A20220020746F6F206C6F6E6720A0
:1010A000657874727573696F6E2070726576656E9F
:1010B0007465640A0020636F6C64206578747275CF
:1010C00073696F6E2070726576656E7465640A0070
:1010D000FFFDFCFAF8F6F4F2F0EEECEAE9E7E5E3FE
:1010E000E1E0DEDCDAD9D7D5D4D2D0CFCDCBCAC8B7
:1010F000C7C5C3C2C0BFBDBCBAB9B7B6B4B3B2B03E
:10110000AFADACAAA9A8A6A5A4A2A1A09E9D9C9A99
:1011100099989795949392908F8E8D8B8A898887D2
:101120008684838281807F7E7D7B7A7978777675ED
:1011300074737271706F6E6D6C6B6A6968676665E7
:1011400064636261605F5E5D5C5B5A5958585756D4
:10115000555453525150504F4E4D4C4B4A4A4948AA
:10116000474646454443424241403F3E3E3D3C3B6C
:101170003B3A39383837363535343332323130301E
:101180002F2E2E2D2C2B2B2A2929282727262525C3
:1011900024232322212120201F1E1E1D1C1C1B1B5B
:1011A0001A191918181716161515141313121211E7
:1011B00011100F0F0E0E0D0D0C0C0B0A0A09090869
:1011C00008070706060505040403030202010000E0
:1011D000000000010000000100008000555555008E
:1011E0000000400033333300AAAA2A0049922400A9
:1011F00000002000C7711C0099991900D145170003
:10120000555515003BB1130024491200111111006E
:10121000000010000F0F0F00E3380E0043790D009F
:10122000CCCC0C00C3300C00E8A20B0064210B00F6
:10123000AAAA0A00703D0A009DD80900427B090055
:1012400092240900DCD308008888080010420800B6
:1012500000000800F0C107008787070075500700ED
:10126000711C07003EEB0600A1BC06006990060059
:1012700066660600703E06006118060017F4050059
:1012800074D105005BB00500B290050062720500E4
:101290005555050078390500B81E050005050500FF
:1012A0004EEC040087D40400A1BD040090A7040004
:1012B00049920400C17D0400EE690400C756040091
:1012C000444404005C32040008210400411004007E
:1012D000000004003FF00300F8E0030026D2030002
:1012E000C3C30300CCB503003AA803000A9B030064
:1012F000388E0300C08103009F750300D06903008E
:10130000505E03001D53030034480300913D030069
:101310003333030016290300381F03009715030019
:10132000300C0300030303000BFA020049F1020032
:10133000BAE802005CE002002DD802002DD00200C5
:1013400059C80200B0C0020031B90200DAB102008F
:10135000AAAA0200A0A30200BC9C0200FA95020007
:101360005C8F0200DF88020082820200457C02005E
:101370002776020027700200436A02007C640200A4
:10138000D05E02003F590200C85302006563686FD7
:101390003A004572726F723A00205A3A0020593A68
:1013A0000020436F756E7420583A00232C0000B85B
:1013B000220000561800003A0F0000B8080000B1E3
:1013C000040000710200003E01000024F4D43050FB
:1013D000C38E20C2A24017828B7011127A910D81A8
:1013E0006CD90AA861E108C7586607615143061E17
:1013F0004B5D05C145A7041A411104093D980371CD
:101400003931034036DB0265339102D43054028017
:101410002E1D02632CEE01752AC501B028A0011013
:101420002781018F2564012B244B01E0223401AC7C
:10143000211F018D200D01801FFC00841EED0097EF
:101440001DDF00B81CD200E61BC600201BBC0064D8
:101450001AB200B219A8000A19A0006A189900D19E
:1014600017910040178B00B516840031167E00B32B
:101470001579003A157300C7146F0058146A00EE0E
:101480001366008813630025135E00C7125B006CAF
:1014900012570015125400C111510070114F002154
:1014A000114B00D61049008D104700461044000231
:1014B000104200C00F4000800F3E00420F3C00066B
:1014C0000F3B00CB0E3800930E37005C0E35002723
:1014D0000E3400F30D3200C10D3100900D3000606C
:1014E0000D2E00320D2D00050D2C00D90C2B00AE59
:1014F0000C2900850C29005C0C2700350C27000EF8
:101500000C2600E80B2400C40B2400A00B23007D54
:101510000B23005A0B2100390B2100180B2000F877
:101520000A1F00D90A1E00BB0A1E009D0A1D00806A
:101530000A1D00630A1C00470A1B002C0A1B00112D
:101540000A1A00F7091A00DD091900C4091900ABCD
:10155000091900920917007B091800630917004C4C
:1015600009160036091600200916000A091500F5AB
:10157000081500E0081400CC081400B8081400A4F2
:10158000081400900813007D0812006B081300581F
:101590000812004608120034081100230811001236
:1015A00008110001081100F0071000E0071000D03A
:1015B000071000C0071000B0070F00A1071000912E
:1015C000070E0083070F0074070F0065070E005712
:1015D000070E0049070E003B070D002E070E0020E6
:1015E000070D0013070D0006070D00F9060C00EDAE
:1015F000060D00E0060C00D4060C00C8060C00BC6A
:10160000060C00B0060C00A4060B0099060C008D19
:10161000060B0082060B0077060B006C060B0061C0
:10162000060A0057060B004C060A0042060A00385C
:10163000060A002E060A0024060A001A060A0010EE
:1016400006090007060A00FD050900F4050900EB7C
:10165000050900E2050900D9050900D0050900C700
:10166000050900BE050900B5050800AD050800A57F
:101670000509009C050800940508008C05080084F5
:101680000508007C050800740508006C0507006566
:101690000508005D050700560508004E05070047D0
:1016A0000507004005080038050700310507002A36
:1016B000050700230507001C050600160507000F97
:1016C0000507000805060002050700FB040600F5F3
:1016D000040700EE040600E8040600E2040700DB4D
:1016E000040600D5040600CF040600C9040600C3A2
:1016F000040600BD040600B7040600B1040500ACF2
:10170000040600A6040600A00405009B040600953C
:10171000040500900406008A040500850405008085
:101720000406007A04050075040500700405006BCA
:1017300004050066040500610405005C040500570B
:10174000040500520405004D04050048040500434B
:101750000405003E0404003A040500350405003089
:101760000404002C04050027040400230405001EC3
:101770000404001A04040016040500110404000DFA
:10178000040400090405000404040000040400FC2F
:10179000030400F8030400F4030400F0030400EC65
:1017A000030400E8030400E4030400E0030400DC95
:1017B000030400D8030400D4030400D0030400CCC5
:1017C000030400C8030300C503030024F404D92064
:1017D0001BC40C5C0E9804C4095F0265077101F418
:1017E00005F900FB04B30048048700C103690058F1
:1017F00003550003034500BE023A00840231005342
:10180000022A002902250004022000E4011C00C86D
:10181000011900AF01170098011400840113007131
:101820000110006101100051010E0043010D00364E
:10183000010B002B010B0020010B00150109000C0E
:1018400001090003010800FB000800F3000800EB99
:10185000000700E4000600DE000600D8000600D203
:10186000000600CC000500C7000500C2000500BD51
:10187000000400B9000400B5000400B1000400AD8C
:10188000000400A9000400A5000300A20003009FBB
:101890000004009B000300980003009500020093E1
:1018A000000300900003008D0002008B00030088FD
:1018B0000002008600020084000300810002007F15
:1018C0000002007D0002007B000200790002007728
:1018D0000001007600020074000200720001007135
:1018E0000002006F0002006D0001006C0002006A3F
:1018F0000001006900020067000100660001006548
:10190000000100640002006200010061000100604B
:101910000001005F0002005D0001005C0001005B4F
:101920000001005A00010059000100580001005751
:101930000001005600010055000100540001005351
:10194000000000530001005200010051000100504E
:101950000001004F0001004E0000004E0001004D4C
:101960000001004C0001004B0000004B0001004A48
:101970000001004900010048000000480001004744
:10198000000100460000004600010045000000453F
:101990000001004400010043000000430001004238
:1019A0000000004200010041000000410001004031
:1019B0000001003F0000003F0001003E0000003E2B
:1019C0000001003D0000003D0001003C0000003C23
:1019D0000000003C0001003B0000003B0001003A19
:1019E0000000003A00010039000000390001003811
:1019F0000000003800000038000100370000003708
:101A000000010036000000360000003600010035FD
:101A100000000035000000350001003400000034F3
:101A200000000034000100330000003300000033E8
:101A300000010032000000320000003200010031DD
:101A400000000031000000310001003000000030D3
:101A5000000000300001002F0000002F0000002FC8
:101A60000000002F0001002E0000002E0000002EBC
:101A70000001002D0000002D0000002D0000002DB1
:101A80000001002C0000002C0000002C0000002CA5
:101A90000001002B0000002B0000002B0000002B99
:101AA0000001002A0000002A0000002A0000002A8D
:101AB0000001002900000029000000290000002981
:101AC0000000002900010028000000280000002874
:101AD0000000002800000028000100270000002767
:101AE000000000270000002700000027000100265A
:101AF000000000260000002600000026000000264E
:101B00000001002500000025000000250000002540
:101B10000000002500000025000100240000002432
:101B20000000002400000024000000240001002325
:101B30000000002300000023000000230000002319
:101B4000000000230000002300010022000000220A
:101B500000000022000000220000002200000022FD
:101B600000010021000000210000002100000021F0
:101B700000000021000000210000002100010020E1
:101B800000000020000000200000002000000020D5
:101B90000000002000000020000000200001001FC5
:101BA0000000001F0000001F0000001F0000001FB9
:101BB0000000001F0000001F0001001E0000001EAA
:101BC0000000001E0000001E000000290A0020285E
:101BD000002920453A0020280029205A3A002028D0
:101BE000002920593A0020280020583A00537465F3
:101BF000707065722063757272656E742076616CA8
:101C000075657320696E20252028416D7073293A0F
:101C10000A002042403A0020403A00202F00546839
:101C200065726D616C2052756E6177617900453126
:101C300020544845524D414C2052554E4157415930
:101C40000042454420544845524D414C2052554E87
:101C500041574159004B494C4C45442E2000202D02
:101C600020496E76616C696420657874727564656C
:101C700072206E756D62657220210A00486561747C
:101C8000696E67206661696C6564004265642068FE
:101C9000656174696E67206661696C65640048659A
:101CA0006174696E67206661696C65640045312006
:101CB00048656174696E67206661696C6564004D92
:101CC000494E54454D50207472696767657265646A
:101CD000004531204572723A204D494E54454D50D1
:101CE000004572723A204D494E54454D50204245B0
:101CF00044004D415854454D5020747269676765E2
:101D0000726564004531204572723A204D41585445
:101D1000454D50004572723A204D415854454D5042
:101D200020424544006265640A002C207379737474
:101D3000656D2073746F70706564212048656174EF
:101D400065725F49443A20002CFFFFFFFFFF00014E
:101D5000010101014B64200023646566696E652002
:101D600044454641554C545F004B6920002364654F
:101D700066696E652044454641554C545F004B7082
:101D8000200023646566696E652044454641554CD4
:101D9000545F00504944204175746F74756E65201E
:101DA00066696E6973686564212050757420746873
:101DB00065206C617374204B702C204B6920616E20
:101DC00064204B6420636F6E7374616E747320665D
:101DD000726F6D2062656C6F7720696E746F20433F
:101DE0006F6E66696775726174696F6E2E680A003E
:101DF000504944204175746F74756E652066616941
:101E00006C6564212074696D656F75740A0054688F
:101E100065726D616C2052756E6177617900453134
:101E200020544845524D414C2052554E415741593E
:101E30000042454420544845524D414C2052554E95
:101E4000415741590048656174696E672066616950
:101E50006C65640045312048656174696E67206671
:101E600061696C6564004265642068656174696ECF
:101E700067206661696C656400504944204175744F
:101E80006F74756E65206661696C656421205465A8
:101E90006D706572617475726520746F6F2068690A
:101EA00067680A00204B643A2000204B693A200002
:101EB000204B703A20000A20436C617373696320E1
:101EC000504944200A002054753A2000204B753AAE
:101ED0002000206D61783A2000206D696E3A200064
:101EE00020643A200020626961733A20005049441E
:101EF000204175746F74756E652073746172740A15
:101F000000504944204175746F74756E6520666198
:101F1000696C6564212054656D70657261747572B9
:101F20006520746F6F20686967680A005049442013
:101F30004175746F74756E65206661696C656421A6
:101F400020426164206578747275646572206E75D4
:101F50006D6265720A004D383420582059205A208D
:101F6000450000000000300E0100C00E0A00500FB6
:101F70001400D00F1E0060102800E0103200701115
:101F80003C00F01146007012500000135A008013FC
:101F9000640000146E0090147800101582009015F3
:101FA0008C00101696009016A0001017AA0090172B
:101FB000B4001018BE009018C8001019D200901973
:101FC000DC00101AE600801AF000001BFA00801BEB
:101FD0000401F01B0E01701C1801F01C2201601D91
:101FE0002C01E01D3601501E4001D01E4A01401F49
:101FF0005401B01F5E0130206801A0207201102141
:102000007C0190218601002290016026F401902A33
:102010005802802EBC0250322003E0358403503930
:10202000E803803C4C041000AD0330016A0150020B
:102030002B0170030A019004F500B005E500D006FD
:10204000D800F007CE001009C500300ABE00500BC2
:10205000B700700CB100900DAB00B00EA600D00F11
:10206000A200F0109D00101299003013950050143A
:10207000920070158E0090168B00B0178700D01854
:102080008400F0198100101B7E00301C7B00501D65
:102090007900701E7600901F7300B0207000D02170
:1020A0006E00F0226B001024690030256600502677
:1020B00063007027610090285E00B0295C00D02A80
:1020C0005900F02B5600102D5400302E5100502F87
:1020D0004E0070304B0090314800B0324500D03394
:1020E0004200F0343E0010363B00303737005038A5
:1020F000330070392E00903A2900B03B2300D03CC9
:102100001B00F03D1100103F0100F03F00000129CD
:102110000229042908291029202940298029012C75
:10212000022C0126022604260826102620264026F8
:102130008026402C802C0123022304230823102313
:102140002023402380230120022004200820102087
:10215000202040208020102C202C012F022F042F23
:10216000082F102F202F402F802F7EFE7EFD7EFB1C
:102170007EF77EEF7EDF7EBF7E7F000100002B2298
:102180001200020000E8214300030000E4210401E2
:10219000030904CA211802030904B2211603030922
:1021A00004A4210C0C03310032003300340035004C
:1021B0000000160355005300420020005300650044
:1021C0007200690061006C00000018035400650093
:1021D00065006E00730079006400750069006E0090
:1021E0006F0000000403090409024300020100C05B
:1021F000320904000001020201000524001001055B
:1022000024010001042402060524060001070582BA
:102210000308004009040100020A0000000705034A
:102220000240000007058402400000120100020283
:10223000000020C01683047202010203010001C1E4
:102240000201803601813600363503908BB831C3E8
:102250003A3511241FBECFEFD0E2DEBFCDBF12E072
:10226000A0E0B1E0E6EFFDE901E00BBF02C007909E
:102270000D92A434B107D9F723E1A4E4B2E001C080
:102280001D92AE3CB207E1F711E1C8E2D1E104C012
:102290002197FE010E94A6C3C432D107C9F70E944C
:1022A000E7BB0C94EECE0C9400004F925F926F92BD
:1022B0007F928F929F92AF92BF92CF92DF92EF92D6
:1022C000FF92CF934B015C0169017A0120E030E07D
:1022D00040EA51E40E94C8C32B013C012FE632E1E1
:1022E00043E85AEB0E94A5C687FD48C022E430E0CF
:1022F00048E153E4C301B2010E94A2C418160CF4D1
:102300003DC02FE632E143E85AEBC701B6010E9417
:10231000A5C687FD33C022E430E04AE753E4C70195
:10232000B6010E94A2C418164CF124EF3DEF4FE90C
:1023300051E4C501B4010E94A5C687FD1FC022E477
:1023400030E04EE053E4C501B4010E94A2C4181667
:10235000ACF027EE3BEF4FE151E4C701B6010E941C
:10236000A5C687FD0BC0C1E022E430E040E753E49E
:10237000C701B6010E94A2C418160CF4C0E08C2F4D
:10238000CF91FF90EF90DF90CF90BF90AF909F9054
:102390008F907F906F905F904F900895CF93DF93D1
:1023A0001F92CDB7DEB76983DC01ED91FC9102800D
:1023B000F381E02D41E050E0BE016F5F7F4F099552
:1023C0000F90DF91CF910895FF920F931F93CF93BA
:1023D000DF93F82E092F162FEEEEF2E06491EF0155
:1023E0002196662329F082EC93E1D8DFFE01F6CF37
:1023F000EF2DF02F6491EF012196662329F082ECF6
:1024000093E1CCDFFE01F6CFECEEF2E06491EF0158
:102410002196662329F082EC93E1C0DFFE01F6CF1E
:10242000412F50E060E070E082EC93E10E942EBB0F
:102430006AE082EC93E1DF91CF911F910F91FF90C1
:10244000ADCF0FB6F8948091B7139091B813A091C7
:10245000B913B091BA130FBE8093C5029093C60210
:10246000A093C702B093C8020895FC0123812111F3
:102470000C944B4E08952F923F924F925F926F9221
:102480007F928F929F92AF92BF92CF92DF92EF9204
:10249000FF920F931F93CF93DF93EB01FC0180809A
:1024A0009180A280B380C501B40120E831E541E00C
:1024B00050E00E9468C3C9016DE671E00E9454C3F8
:1024C0006B017C01C501B40120E13EE040E050E039
:1024D0000E9468C3CA01B90128E130E040E050E041
:1024E0000E9468C3362E272E062F172F8CE3482E06
:1024F000512C612C712CC501B401A30192010E94E1
:1025000068C3B62EA72ECA01B901A30192010E9489
:1025100068C3CB01C114D104D9F0AF92BF927F93AD
:102520006F932F923F92FF92EF92DF92CF9287E6C6
:102530009AE09F938F93DF93CF930E94FACB8DB74E
:102540009EB70E960FB6F8949EBF0FBE8DBF5CC0AF
:10255000E114F104C9F0AF92BF927F936F932F9271
:102560003F92FF92EF9287E59AE09F938F93DF93DC
:10257000CF930E94FACBEDB7FEB73C960FB6F89416
:10258000FEBF0FBEEDBF40C0012BB9F0AF92BF92AE
:102590007F936F932F923F928BE49AE09F938F9358
:1025A000DF93CF930E94FACB8DB79EB70A960FB6F2
:1025B000F8949EBF0FBE8DBF27C0892BA9F0AF92A4
:1025C000BF927F936F9383E49AE09F938F93DF93FF
:1025D000CF930E94FACBEDB7FEB738960FB6F894BA
:1025E000FEBF0FBEEDBF10C0AF92BF928FE39AE067
:1025F0009F938F93DF93CF930E94FACB0F900F900E
:102600000F900F900F900F90DF91CF911F910F912E
:10261000FF90EF90DF90CF90BF90AF909F908F9002
:102620007F906F905F904F903F902F9008958154CE
:102630008A3108F041C0E82FF0E040916C095091D8
:102640006D0960916E0970916F0904C07695679568
:10265000579547958A95D2F7842F817040FF33C0F4
:10266000EE5AF64F9081992301F1E0917709F091AC
:102670007809E90FF11D908120ED290F2A3080F0B3
:102680009E3229F4918190539A3078F409C09D329A
:1026900011F09B3251F4918120ED290F2A3018F46A
:1026A0002E2F9F2F04C09E3249F020E090E020930F
:1026B000730990937409089580E00895928190536E
:1026C0009A3098F7EDCF0895B2DF882341F081E08A
:1026D0002091730930917409232B09F480E0089547
:1026E0000F931F93CF938091730990917409009772
:1026F00011F1FC018F01C1912C2F2F7DA9F0C53460
:1027000011F0C536B9F7F801108260E070E08091F1
:102710007309909174090E94AAC7F801C083562FCB
:10272000472F382F292F0BC060E070E0CF911F9109
:102730000F910C94AAC750E040E030E020E0652FF4
:10274000742F832F922FCF911F910F910895809115
:10275000730990917409009731F04AE050E060E00D
:1027600070E00C94FDC860E070E0CB0108958091AA
:10277000730990917409009731F04AE050E060E0ED
:1027800070E00C9428CA60E070E0CB010895DFDFB0
:1027900097FD0AC0DCDF6F3F71058105910509F0E7
:1027A0002CF4D5DF862F089580E008958FEF0895EB
:1027B0008091730990917409892B31F0E8DF91E0E1
:1027C000811103C090E001C091E0892F08950F931B
:1027D0001F93CF93DF93CDB7DEB72C970FB6F89446
:1027E000DEBF0FBECDBFE9EAF4E080859185A2850A
:1027F000B385448155816681778100811181228171
:10280000338109871A872B873C874D835E836F83CB
:10281000788789839A83AB83BC83AE014F5F5F4F18
:10282000BE016B5F7F4FCE0109960E94627F25EB50
:1028300034E0AE014F5F5F4FBE016B5F7F4FCE0153
:1028400009960E94C48D2C960FB6F894DEBF0FBE79
:10285000CDBFDF91CF911F910F9108952F923F929D
:102860004F925F926F927F929F92AF92BF92CF9260
:10287000DF92EF92FF920F931F93CF93DF93CDB729
:10288000DEB764970FB6F894DEBF0FBECDBF1A0156
:102890002B01922EF32EC82ED12CF601E051F64FCB
:1028A000E491AA24A3941E160CF4A12CBB24B39487
:1028B00020E030E0A901C201B1010E94A5C61816AE
:1028C0000CF0B12CCC0CDD1CCC0CDD1CC6018755EA
:1028D0009B4F3C01FC01108211821282138277DF30
:1028E000F3012082318242825382E090CD0220E0C7
:1028F00030E0A901B801892D9F2D0E94A2C4811149
:102900000AC0F601E15DF54F85919591A591B491CD
:102910008C019A2EFB2EC801A92DBF2D898B9A8B75
:10292000AB8BBC8B8091B1049091B204A091B304A5
:10293000B091B4044091AD045091AE046091AF04E5
:102940007091B0040091A9041091AA042091AB04E5
:102950003091AC040D871E872F87388B49875A87A3
:102960006B877C878D839E83AF83B88719821A8299
:102970001B821C82AE014B5F5F4FBE01675F7F4FC2
:10298000CE010D960E94627FCE0101966C018E01F0
:102990000F5E1F4F25EB34E0AE014B5F5F4FBE0172
:1029A000675F7F4F0C960E94E28C0E94E680AB101E
:1029B0000E940C7464960FB6F894DEBF0FBECDBFB4
:1029C000DF91CF911F910F91FF90EF90DF90CF900B
:1029D000BF90AF909F907F906F905F904F903F908F
:1029E0002F90089565EB74E083E00C94E98E1092CB
:1029F0008E0410928C0410928D04089590918C0492
:102A0000E92FF0E0E455FD4F80839F5F943018F488
:102A100090938C0402C010928C0480918E048F5F7E
:102A200080938E040895CF93FC0120812B33A1F075
:102A300020918E04243080F4C62FBC0180918C0438
:102A4000F0E68F9FC0011124845F9C4F0E94CBCB86
:102A50008C2FD4DF81E001C080E0CF910895EF9208
:102A6000FF921F93CF93DF937C0160E0DCDF182F90
:102A70008823C9F0ECE8F3E16491EF012196662325
:102A800029F082EC93E18ADCFE01F6CFB70181EDFB
:102A900093E00E94869062E282EC93E17FDC6AE040
:102AA00082EC93E17BDC812FDF91CF911F91FF902E
:102AB000EF900895DF92EF92FF920F931F93CF93C1
:102AC000DF93CDB7DEB76E970FB6F894DEBF0FBEBB
:102AD000CDBF60910A0370910B036115710541F13F
:102AE0004DE150E0CE0101967C010E945ACB1E8E32
:102AF000F7018F010E191F09D190DD2019F09AE01E
:102B0000D912F7CFF701E00FF11F1082C701A7DF3D
:102B1000882371F0DD20A9F00F5F1F4F80910A0319
:102B200090910B03080F191F10930B0300930A03D6
:102B300081E020910A0330910B03232B29F480E0DC
:102B400003C000E010E0F0CF6E960FB6F894DEBF41
:102B50000FBECDBFDF91CF911F910F91FF90EF90EE
:102B6000DF90089590930B0380930A03A3CF8F9275
:102B70009F92AF92BF92CF92DF92EF92FF920F930C
:102B80001F93CF93DF938091BC04882309F4E0C0A6
:102B900080918E04811102C01092450201E04091A3
:102BA000250750912607609127077091280780918B
:102BB000290790912A07A0912B07B0912C07841721
:102BC0009507A607B70708F400E0C0E0D0E0DD24D1
:102BD000D39480E6C82E80918E04843008F0B8C06B
:102BE0000111B6C0809145028111B2C0809180066A
:102BF00090918106A0918206B09183068093290767
:102C000090932A07A0932B07B0932C0788E796E0B0
:102C10000E94A24C182F8090290790902A07A0901C
:102C20002B07B0902C074091250750912607609103
:102C300027077091280701E084169506A606B706B7
:102C400008F400E084169506A606B706A0F48F3FA8
:102C50002FEF920731F11A3009F448C01D3009F402
:102C600045C0133219F01A3309F057C020914402BD
:102C7000211153C032C08AEB94E00E94AD60809174
:102C8000BC0481112DC0E1EBF8E064917F018FEF6E
:102C9000E81AF80A662309F182EC93E17FDBF70179
:102CA000F4CFE2E9F3E164917F012FEFE21AF20A37
:102CB000662329F082EC93E171DBF701F4CFE2EABD
:102CC000F8E064917F018FEFE81AF80A662329F093
:102CD00082EC93E163DBF701F4CF133239F404C0E3
:102CE000133299F5C0E0D0E0D09245021092440230
:102CF000209729F40E9462A8C0E0D0E06CCF8091B8
:102D00008C04C89EC00DD11D1124C45FDC4F1882F5
:102D100080E074DEC0E0D0E05ECFCF35D10508F0B2
:102D20005ACF1B3311F4D092440220914402211156
:102D300052CF90918C04FE01C99EE00DF11D11242B
:102D4000E45FFC4F8083219646CF10924402D2CF9D
:102D5000DF91CF911F910F91FF90EF90DF90CF9077
:102D6000BF90AF909F908F900895EF92FF920F9336
:102D70001F93CF93DF937C0184E5A6DCD82F8823B3
:102D800069F105DDC82F18162CF5ECE8F3E1649124
:102D90008F010F5F1F4F662329F082EC93E1FEDA6B
:102DA000F801F5CF6DE482EC93E1F8DAA70160E079
:102DB00070E020E082EC93E10E94C2BA6C2FCC0F4D
:102DC000770B8EEB93E00E9407906AE082EC93E130
:102DD000E5DA08C08093C002D0E004C08091CD0243
:102DE0008093C0028D2FDF91CF911F910F91FF90A3
:102DF000EF9008950F931F93CF93DF9394E0899FF3
:102E0000E00111248E0104521D4FFE01E851FD4FD7
:102E1000DE01AC50BD4F2D913D914D915C91608193
:102E20007181828193810E94C9C3F801608371839B
:102E300082839383FE01ED5DF54F85919591A59178
:102E4000B491FE01E053FD4F80839183A283B3834D
:102E5000FE01E95EF54F85919591A591B491C55F0D
:102E6000DE4F88839983AA83BB83DF91CF911F9123
:102E70000F910895CF92DF92EF920F931F93CF930C
:102E8000DF93CDB7DEB760970FB6F894DEBF0FBE05
:102E9000CDBFE090CD02E9EAF4E080859185A2857E
:102EA000B3854481558166817781008111812281BA
:102EB00033810D871E872F87388B49875A876B8709
:102EC0007C878D839E83AF83B88719821A821B8289
:102ED0001C82AE014B5F5F4FBE01675F7F4FCE012B
:102EE0000D960E94627FCE0101966C0109E111E00E
:102EF00025EB34E0AE014B5F5F4FBE01675F7F4F54
:102F00000C960E94E28C60960FB6F894DEBF0FBE5E
:102F1000CDBFDF91CF911F910F91EF90DF90CF90B8
:102F200008958F929F92AF92BF92CF92DF92EF92CD
:102F30000F931F93CF93DF93CDB7DEB760970FB694
:102F4000F894DEBF0FBECDBF8C01E090CD02E9E961
:102F5000F4E080859185A285B385448155816681A1
:102F6000778180809180A280B3808D869E86AF8697
:102F7000B88A49875A876B877C878D839E83AF8306
:102F8000B88719821A821B821C82AE014B5F5F4F89
:102F9000BE01675F7F4FCE010D960E94627FCE011A
:102FA00001966C0125EA34E0AE014B5F5F4FBE0134
:102FB000675F7F4F0C960E94E28C60960FB6F89484
:102FC000DEBF0FBECDBFDF91CF911F910F91EF906C
:102FD000DF90CF90BF90AF909F908F9008953F92D9
:102FE0004F925F926F927F928F929F92AF92BF9219
:102FF000CF92DF92EF92FF920F931F93CF93DF93C5
:10300000CDB7DEB72A970FB6F894DEBF0FBECDBF9F
:103010002B013C012D833E834F8358874701580184
:10302000DA86C9868091190190911A01A0911B013D
:10303000B0911C0189839A83AB83BC83D601EC9049
:103040001196FC90119712960C91129713961C9161
:1030500020E030E0A901B701C8010E94A2C481119B
:1030600008C0E7E3FAE085919591A591B4917C01C0
:103070008D01A50194016091B1047091B204809119
:10308000B3049091B4040E94A2C487FF13C0C70187
:10309000D8018093190190931A01A0931B01B0935A
:1030A0001C018092B1049092B204A092B304B09239
:1030B000B404E0DEE985FA85D080C1803280F381F6
:1030C000F98720E030E0A9016D2D7C2D832D9F2F05
:1030D0000E94A2C4811109C0D0900101C0900201D8
:1030E000309003018091040189878D2D9C2DA32DA3
:1030F000B9858093190190931A01A0931B01B09395
:103100001C014092A9045092AA046092AB047092F0
:10311000AC048D819E81AF81B8858093AD0490937E
:10312000AE04A093AF04B093B004A4DE2091B10428
:103130003091B2044091B3045091B404C501B4017C
:103140000E94A2C487FF13C0C701D8018093190150
:1031500090931A01A0931B01B0931C018092B104BB
:103160009092B204A092B304B092B40483DE0E94A1
:10317000E68089819A81AB81BC818093190190930B
:103180001A01A0931B01B0931C012A960FB6F89464
:10319000DEBF0FBECDBFDF91CF911F910F91FF908A
:1031A000EF90DF90CF90BF90AF909F908F907F90E7
:1031B0006F905F904F903F900895CF92DF92EF9283
:1031C000FF920F931F936B01FC01E080F18002815D
:1031D0001381E9EAF4E024813581468157816081D9
:1031E000718182819381FBDE1F910F91FF90EF909F
:1031F000DF90CF900895CF92DF92EF92FF920F93DE
:103200001F936A01E090B104F090B2040091B304FE
:103210001091B404FB012081318142815381FC0172
:103220006081718182819381DADE1F910F91FF901D
:10323000EF90DF90CF9008958091190190911A013D
:10324000A0911B01B0911C0180930603909307038A
:10325000A0930803B093090380911701909118017E
:10326000909305038093040384E690E09093180103
:103270008093170108958091060390910703A09110
:103280000803B09109038093190190931A01A09348
:103290001B01B0931C01809104039091050390934E
:1032A0001801809317010895FF920F931F93CF93F6
:1032B000DF93882329F0D0919804D095D17001C074
:1032C000D0E0662341F0809198048695817091E06A
:1032D000F82EF92601C0F12C442341F0C091980446
:1032E000C2FB882780F9C1E0C82701C0C0E0D11126
:1032F00002C0FF2019F0ECE8F3E107C0C111FBCFD9
:1033000053C082EC93E14AD8F80164918F010F5FBA
:103310001F4F6111F6CFE8EBF3E064918F010F5F6F
:103320001F4F662329F082EC93E138D8F801F5CFDE
:10333000DD2369F0E6EBF3E064918F010F5F1F4F2F
:10334000662329F082EC93E129D8F801F5CFFF201C
:1033500069F0E4EBF3E064918F010F5F1F4F662388
:1033600029F082EC93E11AD8F801F5CFCC2319F0BB
:10337000E2EBF3E003C0EAEAF3E00AC06491EF0194
:1033800021966623C1F382EC93E108D8FE01F6CFC3
:103390006491EF012196662331F082EC93E10E9463
:1033A000CE11FE01F5CFC1E08C2FDF91CF911F919F
:1033B0000F91FF900895BF92CF92DF92EF92FF920C
:1033C0000F931F93CF93DF93CDB7DEB728970FB638
:1033D000F894DEBF0FBECDBF90914C09981709F449
:1033E0007AC0B82E882309F453C080E090E0A0E8AA
:1033F000B0E48D839E83AF83B887C090BC02D09029
:10340000BD02E090BE02F090BF0220E030E0A901D2
:10341000C701B6010E94A2C487FF0CC0A701960194
:1034200060E070E080E890E40E94C8C36D837E8312
:103430008F83988720E030E048E153E46D817E81FE
:103440008F8198850E94A5C6181644F480E090E00C
:10345000A8E1B3E48D839E83AF83B8872D813E813D
:103460004F8158856091B1047091B2048091B3048A
:103470009091B4040E94A2C487FF0AC019821A82E4
:103480001B821C82BE016F5F7F4FCE01059695DEC9
:103490006091A9047091AA048091AB049091AC044E
:1034A0002091AD043091AE044091AF045091B0042E
:1034B00019821A821B821C82E090B104F090B2043F
:1034C0000091B3041091B404FE0131966F0187DDC1
:1034D0008B2D0E94177480E028960FB6F894DEBFFB
:1034E0000FBECDBFDF91CF911F910F91FF90EF9055
:1034F000DF90CF90BF9008954F925F926F927F922E
:103500008F929F92AF92BF92CF92DF92EF92FF92F3
:103510000F931F93CF93C82FE82EF12CF701E051A2
:10352000F64FB490823021F481E045DF811110C163
:103530006701CC0CDD1CCC0CDD1CF601E150F64F14
:1035400045905590659074906B2DBB0C770B880B54
:10355000990B0E9444C54B015C0120E030E040EC37
:103560005FE3C301B2010E94E0C6A50194010E947D
:10357000E0C6AB01BC0100E010E098018C2F6ED9D1
:10358000C23061F0F601ED50F64F85919591A5910D
:10359000B491E82F792F6A2F8B2F04C0E0E070E000
:1035A00060E480E42E2F372F462F582FC501B40139
:1035B0000E94E0C64B015C0120E030E0A9010E94BE
:1035C000A2C4882309F45DC0C23021F000E010E0FD
:1035D000980104C000E010E020E830E4B501A40147
:1035E00070588C2F3BD9C23009F43AC0F701E1562C
:1035F000F74F649161111FC0ECE8F3E164917F0122
:103600008FEFE81AF80A662331F082EC93E10E940A
:10361000CE11F701F3CFEDE7F8E064917F018FEF72
:10362000E81AF80A662331F082EC93E10E94CE1189
:10363000F701F3CF6AE0F601E15DF54F4590559053
:103640006590749070E080E090E00E9444C59B011A
:10365000AC01C301B2010E94A9C42B013C0105C009
:10366000412C512C612C90E4792EA5019401C501C7
:10367000B4010E94C9C3AB01BC01930182018C2F2C
:10368000EDD881E090E00C2E01C0880F0A94EAF793
:1036900090919704982B9093970490919804892B7C
:1036A00080939804F601EC50FD4F10821182128233
:1036B00013828C2F9FDBF601E55FF54F8591959185
:1036C000A591B491F601E755FB4F80839183A283C6
:1036D000B383C230D1F42091BC023091BD0240913D
:1036E000BE025091BF026091B1047091B20480910A
:1036F000B3049091B4040E94C8C36093B104709362
:10370000B2048093B3049093B40461D8F601E756F1
:10371000FB4FD601A755BB4F8D919D910D90BC914C
:10372000A02D80839183A283B383C23089F480E08B
:10373000CF911F910F91FF90EF90DF90CF90BF90AE
:10374000AF909F908F907F906F905F904F9033CE0F
:10375000CF911F910F91FF90EF90DF90CF90BF908E
:10376000AF909F908F907F906F905F904F90089553
:103770009F92AF92BF92CF92DF92EF92FF920F9300
:103780001F93CF93DF938DEFA82E81E0B82E09E928
:1037900014E0C9EAD4E09CEDC92E92E0D92E20E0D5
:1037A000E22E23E0F22E912CF50181915F010E941F
:1037B0001713882309F10E947013F701208121114A
:1037C00004C02091CC02222339F0288139814A811A
:1037D0005B810E94C9C30AC0F3E09F1639F0F6016D
:1037E00020813181428153810E94C8C3F8016083E6
:1037F00071838283938309C088819981AA81BB8167
:10380000F80180839183A283B38393940C5F1F4F4D
:103810002496F4E0CF0ED11C2FEFE21AF20A84E0D6
:103820009812C2CF86E40E9464138823C9F00E94D4
:10383000701320E030E0A9010E94A5C6181684F498
:103840000E94701320E030E040E752E40E94A9C4D7
:103850006093190170931A0180931B0190931C01CE
:10386000DF91CF911F910F91FF90EF90DF90CF905C
:10387000BF90AF909F900895CF92DF92EF92FF920A
:103880000F931F93CF93DF930FB6F894C090B713A5
:10389000D090B813E090B913F090BA130FBE809196
:1038A000CB02811174C080910001882309F46FC09C
:1038B0008091AB02882309F46AC04091A70250911D
:1038C000A8026091A9027091AA0297018601041BC7
:1038D000150B260B370B37FD6DC0833031F134F4F7
:1038E00081300CF454C0ECE8F3E106C0843009F0F8
:1038F0004EC0ECE8F3E133C06491EF0121966623FA
:1039000031F082EC93E10E94CE11FE01F5CFE6E7A3
:10391000F3E06491EF012196662309F438C082EC4C
:1039200093E10E94CE11FE01F4CFECE8F3E1649143
:10393000EF012196662331F082EC93E10E94CE11D3
:10394000FE01F5CFEFE5F3E06491EF0121966623E8
:10395000F1F082EC93E10E94CE11FE01F5CF64916B
:10396000EF012196662331F082EC93E10E94CE11A3
:10397000FE01F5CFE7E4F3E06491EF0121966623C1
:1039800031F082EC93E10E94CE11FE01F5CF20913F
:10399000000130E0A8EEB3E00E94AFC3C60ED71E10
:1039A000E81EF91EC092A702D092A802E092A902D6
:1039B000F092AA02DF91CF911F910F91FF90EF90AB
:1039C000DF90CF9008950F931F93CF93DF9300D094
:1039D00000D0CDB7DEB78091970483708330E9F0D3
:1039E000ECE8F3E164918F010F5F1F4F662331F024
:1039F00082EC93E10E94CE11F801F4CFE8E5F8E003
:103A000064918F010F5F1F4F662309F43EC082EC63
:103A100093E10E94CE11F801F3CF0E94E71380E0FA
:103A200090E0AAEFB2E480939D0490939E04A0934B
:103A30009F04B093A0048091B1049091B204A0912E
:103A4000B304B091B4048093A1049093A204A09312
:103A5000A304B093A40480E090E0A0E6B2E48093D5
:103A6000990490939A04A0939B04B0939C041982A8
:103A70001A821B821C82AE014F5F5F4F6DE974E0BA
:103A800089E994E0B8DB82E037DD0F900F900F906A
:103A90000F90DF91CF911F910F9108950F931F9376
:103AA000CF93DF93CDB7DEB769970FB6F894DEBF3B
:103AB0000FBECDBF0E94CF9F6E8B7F8B888F998F5B
:103AC000BE016F5F7F4FCE0146960E943B12ECE82D
:103AD000F3E164918F010F5F1F4F662331F082EC99
:103AE00093E10E94CE11F801F4CFBE016F5F7F4FCA
:103AF00083EA97E00E9486906AE082EC93E10E945C
:103B0000CE1169960FB6F894DEBF0FBECDBFDF9120
:103B1000CF911F910F910895CF938091BC04811193
:103B20000E94E6808091BD048823A9F180E50E946F
:103B30006413882321F00E94D813C82F04C080E5A5
:103B40000E941713C82F60917509709176092C2F68
:103B500041E08AEB94E00E94305D83E50E946413AB
:103B6000882381F00E94A713AB01BC014093290771
:103B700050932A0760932B0770932C0788E796E0F1
:103B80000E94674D8AEB94E00E94BC5AC11103C0A9
:103B9000CF910C940EA0CF910895CF93DF93E2E9DB
:103BA000F3E16491EF012196662331F082EC93E119
:103BB0000E94CE11FE01F5CFE4E9F7E06491EF0138
:103BC0002196662331F082EC93E10E94CE11FE0132
:103BD000F5CFDF91CF9108950F931F93CF9383E596
:103BE0000E946413882309F440C00E94C713082F61
:103BF00080E50E9464138823C1F10E94C713C82F77
:103C000087FD33C089E40E946413882339F00E9441
:103C1000D813811112C0E3EFF2E00BC089E40E94D7
:103C2000171381110AC0F7CF319683E0E032F8070D
:103C300021F08491C813F8CF14C08C2F0E9434BC9B
:103C4000EC2FF0E0002E0E94D9BC10E0B8018C2FC0
:103C50000E9445BCC03149F41093CF020093CE02BC
:103C600004C0CF911F910F9198CFCF911F910F91C9
:103C70000895CF93DF9388E690E077D881112EC026
:103C80008091B90483FD2AC083E50E9464138823D0
:103C900009F10E947013C0914801D09149012F97FA
:103CA0000E9411C59E016C177D070CF49B01309397
:103CB000F0122093EF1280E00E9408A60E94701379
:103CC00020E030E04AEA52E40E94A2C4181614F040
:103CD0000E94789FDF91CF910C94D38FDF91CF9189
:103CE0000895CF92DF92EF92FF9283E50E946413D2
:103CF000882321F10E94C7138D3308F08CE3809351
:103D00008D110FB6F894C090B713D090B813E0900F
:103D1000B913F090BA130FBE282F30E0A8EEB3E02D
:103D20000E94AFC3C60ED71EE81EF91EC0928911AD
:103D3000D0928A11E0928B11F0928C11FF90EF904B
:103D4000DF90CF90089580E50E946413811106C032
:103D500083E50E946413882359F005C00E94C713AD
:103D600081110CC0F5CF0E94A7136F3F710510F0B1
:103D70006FEF70E07093CF026093CE020895DF92F0
:103D8000EF92FF920F931F93CF93DF9383E50E94EF
:103D90001713882359F083E50E946413882319F0D0
:103DA0000E94C71301C080E08093B904ECE8F3E1FE
:103DB0006491EF012196662331F082EC93E10E9439
:103DC000CE11FE01F5CFE9E4F7E06491EF01219611
:103DD000662331F082EC93E10E94CE11FE01F5CF13
:103DE0008091B9048823A9F180E5E82E87E0F82EB8
:103DF00000E010E020E08091B90490E0002E02C0C5
:103E0000959587950A94E2F780FF1AC0DD24D39434
:103E1000D20E222329F06CE282EC93E10E94CE11B3
:103E2000F70185919491FC016491EF01219666233D
:103E300031F082EC93E10E94CE11FE01F5CF2D2DE1
:103E40000F5F1F4F82E0E80EF11C0530110599F657
:103E50000DC0E5E4F7E06491EF012196662331F0AF
:103E600082EC93E10E94CE11FE01F5CF6AE082EC74
:103E700093E1DF91CF911F910F91FF90EF90DF9031
:103E80000C94CE11CF93DF9383E50E9464138823B3
:103E900051F00E94C7138D3308F08CE3809300012A
:103EA000DF91CF910895ECE8F3E16491EF01219661
:103EB000662331F082EC93E10E94CE11FE01F5CF32
:103EC0004091000150E060E070E08EE397E00E94D6
:103ED00065906AE082EC93E1DF91CF910C94CE1172
:103EE0004F925F926F927F92AF92BF92CF92DF928A
:103EF000EF92FF920F931F93CF938DEFA82E81E047
:103F0000B82E01E21AE0C0E0F50181915F010E9444
:103F10001713882309F46DC0C33009F063C00E94F1
:103F200070136B017C0120E030E040EA51E40E9414
:103F3000A2C487FF4EC0A701960160912D0A70911F
:103F40002E0A80912F0A9091300A0E94A9C42B0159
:103F50003C019B01AC016091F9097091FA098091D3
:103F6000FB099091FC090E94E0C66093F9097093E7
:103F7000FA098093FB099093FC09A30192016091D7
:103F80003D0A70913E0A80913F0A9091400A0E943A
:103F9000E0C660933D0A70933E0A80933F0A909377
:103FA000400A6091510A7091520A8091530A90918F
:103FB000540A0E9442C5A30192010E94E0C60E94D9
:103FC00016C56093510A7093520A8093530A9093D6
:103FD000540AC0922D0AD0922E0AE0922F0AF09233
:103FE000300A07C00E947013F801608371838283D6
:103FF0009383CF5F0C5F1F4FC43009F085CFCF9103
:104000001F910F91FF90EF90DF90CF90BF90AF90F6
:104010007F906F905F904F900C94AF8F0F931F9392
:10402000CF93DF93C9EAD4E00CED12E0F8012081D0
:10403000318142815381688179818A819B810E948B
:10404000C9C3AB01BC018EE393E00E944490F80128
:1040500024813581468157816C817D818E819F814C
:104060000E94C9C3AB01BC018AE393E00E94449063
:10407000F8012085318542855385688579858A8553
:104080009B850E94C9C3AB01BC0186E393E00E94FB
:1040900044904C855D856E857F8582E393E00E9428
:1040A0004490DF91CF911F910F910C94919D2F928D
:1040B0003F924F925F926F927F928F929F92AF92B8
:1040C000BF92CF92DF92EF92FF920F931F93CF9305
:1040D000DF938DEF882E81E0982EC4EFD2E099EA2D
:1040E000A92E94E0B92E0CED12E0312C212CF40114
:1040F00081914F010E946413882309F44AC00E94F1
:1041000070136B017C01F3E03F1649F0F801208148
:104110003181428153810E94C8C36B017C01F5014A
:104120002081318142815381C701B6010E94C8C3F9
:104130002B013C012DEB37E346E855EB0E94A5C669
:1041400087FD0AC02DEB37E346E855E3C301B20112
:104150000E94A2C41816ECF4F3E03F120BC0C09208
:10416000B504D092B604E092B704F092B8042224C9
:1041700023940FC0A3019201688179818A819B8178
:104180000E94C9C3688379838A839B83832D0E949D
:10419000FA163394249684E0A80EB11C0C5F1F4FCE
:1041A000E4E03E12A4CF21100E94F214DF91CF91DF
:1041B0001F910F91FF90EF90DF90CF90BF90AF9045
:1041C0009F908F907F906F905F904F903F902F9037
:1041D00025CFCF93DF93EAE6F6E06491EF012196D5
:1041E000662331F082EC93E10E94CE11FE01F5CFFF
:1041F00060E08AE596E00E94E41161E083E596E0E4
:104200000E94E41161E088E496E00E94E41161E01C
:1042100088E396E00E94E41160E08FE296E00E945D
:10422000E41161E085E296E00E94E41161E08BE137
:1042300096E00E94E41161E083E196E00E94E411BF
:1042400061E085E096E00E94E41160E087EF95E090
:104250000E94E41160E088EE95E00E94E41160E0C5
:104260008AED95E00E94E41160E084EC95E00E9404
:10427000E41160E083EB95E00E94E41160E08EE9D8
:1042800095E00E94E41161E08BE895E0DF91CF9129
:104290000C94E411CF92DF92EF92FF92CF9388ECCF
:1042A00090E00E94B51681114EC084E40E9417135D
:1042B000882309F441C00E9470136B017C01C1E0A6
:1042C00020E030E0A9010E94A2C4811101C0C0E039
:1042D000C093790920E030E0A901C701B6010E942E
:1042E000A2C4882349F10E947013E091C00224E027
:1042F000E29FF0011124E751F64F608371838283BE
:10430000938320E030E0A9016091E9097091EA0906
:104310008091EB099091EC090E94A2C481110CC01C
:1043200080E090E0A0EEBFE38093E9099093EA0972
:10433000A093EB09B093EC09CF91FF90EF90DF9041
:10434000CF900C94FD7ECF91FF90EF90DF90CF90B7
:104350000895CF9383E50E9464138823A1F00E94FF
:1043600070136093090A70930A0A80930B0A909362
:104370000C0A6093010A7093020A8093030A9093D7
:10438000040AC0E001C0C1E080E50E9464138823F4
:1043900059F00E9470136093090A70930A0A80937F
:1043A0000B0A90930C0AC0E082E50E9464138823F4
:1043B00059F00E9470136093050A7093060A809367
:1043C000070A9093080AC0E084E50E9464138823DA
:1043D00059F00E9470136093010A7093020A80934F
:1043E000030A9093040A2CC0CC2351F14091090A8E
:1043F00050910A0A60910B0A70910C0A87E795E0C8
:104400000E9444904091050A5091060A6091070A63
:104410007091080A84E795E00E9444904091010A57
:104420005091020A6091030A7091040A81E795E0B5
:104430000E9444906AE082EC93E1CF910C94CE11FB
:10444000CF91089581E50E941713882351F00E94AF
:10445000B7136093410A7093420A8093430A909382
:10446000440A83E50E941713882351F00E947013B9
:1044700060930D0A70930E0A80930F0A9093100AAE
:1044800084E50E941713882351F00E9470136093F3
:10449000FD097093FE098093FF099093000A88E557
:1044A0000E941713882351F00E9470136093ED0946
:1044B0007093EE098093EF099093F00989E50E94CB
:1044C0001713882351F00E9470136093F1097093C1
:1044D000F2098093F3099093F4098AE50E94171377
:1044E000882351F00E9470136093F5097093F609C8
:1044F0008093F7099093F80985E40E9417138823A5
:1045000051F00E9470136093F9097093FA09809337
:10451000FB099093FC090895CF93DF93ECE8F3E156
:104520006491EF012196662331F082EC93E10E94C1
:10453000CE11FE01F5CF83E50E941713882321F0E9
:104540000E94D81380930A01E1E6F5E06491EF013F
:104550002196662331F082EC93E10E94CE11FE0198
:10456000F5CF80910A01811103C0E9E5F5E002C0B1
:10457000EDE5F5E06491EF012196662331F082ECE0
:1045800093E10E94CE11FE01F5CFE1E5F5E06491E3
:10459000EF012196662331F082EC93E10E94CE1167
:1045A000FE01F5CF2091DC023091DD024091DE0268
:1045B0005091DF026091D0027091D1028091D202BD
:1045C0009091D3020E94C9C3AB01BC018FE495E076
:1045D0000E9444902091E0023091E1024091E20279
:1045E0005091E3026091D4027091D5028091D6027D
:1045F0009091D7020E94C9C3AB01BC018CE495E045
:104600000E9444902091E4023091E5024091E6023C
:104610005091E7026091D8027091D9028091DA023C
:104620009091DB020E94C9C3AB01BC0189E495E013
:104630000E944490E1E4F5E06491EF012196662345
:1046400031F082EC93E10E94CE11FE01F5CF209172
:10465000DC023091DD024091DE025091DF02609178
:104660000B0170910C0180910D0190910E010E943F
:10467000C9C3AB01BC018FE395E00E944490209137
:10468000E0023091E1024091E2025091E302609138
:104690000F017091100180911101909112010E94FF
:1046A000C9C3AB01BC018CE395E00E94449020910A
:1046B000E4023091E5024091E6025091E7026091F8
:1046C00013017091140180911501909116010E94BF
:1046D000C9C3AB01BC0189E395E00E9444906AE044
:1046E00082EC93E1DF91CF910C94CE110F931F9345
:1046F000CF93DF938DED90E00E94B516811170C0CD
:1047000083E50E9464138823B9F1C091C002D0E010
:104710000E94A713CC0FDD1FC25DDE4F7983688333
:104720008091C00290E0EC01CC0FDD1FCC0FDD1FAB
:104730008E01065D1E4F880F991FFC01E25DFE4F42
:1047400060817181072E000C880B990B0E9444C573
:104750002AE037ED43E25CE30E94E0C6CB51D64F3E
:10476000288139814A815B810E94E0C6F80160831B
:1047700071838283938334C0ECE8F3E16491EF01A9
:104780002196662331F082EC93E10E94CE11FE0166
:10479000F5CF65E482EC93E10E94CE116091C002F6
:1047A000605D82EC93E10E94CE11E091C002F0E0E6
:1047B000EE0FFF1FE25DFE4F6081718181E395E0A6
:1047C0000E94079065E282EC93E10E94CE116AE0BC
:1047D00082EC93E1DF91CF911F910F910C94CE1158
:1047E000DF91CF911F910F910895CF92DF92EF92B9
:1047F000FF92CF93DF938AE50E946413811106C074
:1048000083E50E946413882309F481C00E94701319
:1048100020E030E040E050EC0E94A2C487FD15C0CB
:104820000E94701320E030E040E050E40E94A5C6F2
:1048300018162CF00E9470136B017C010BC0C12C68
:10484000D12CE12C90E4F92E05C0C12CD12CE12C07
:1048500080ECF82E8091970482FF18C0C091A612B8
:10486000D091A7122091290A30912A0A40912B0A4F
:1048700050912C0AC701B6010E94E0C60E9411C5E2
:10488000C60FD71FD093A712C093A61280E50E942F
:104890001713882321F00E94D8138823C1F1A701A0
:1048A00096016091BC027091BD028091BE02909110
:1048B000BF020E94C9C36093BC027093BD02809383
:1048C000BE029093BF02ECE8F3E16491EF01219600
:1048D000662331F082EC93E10E94CE11FE01F5CF08
:1048E0004091BC025091BD026091BE027091BF0226
:1048F00080E295E00E9444906AE082EC93E1DF91CF
:10490000CF91FF90EF90DF90CF900C94CE11DF917C
:10491000CF91FF90EF90DF90CF900895CF93DF93EA
:1049200085E40E946413811110C080E50E94171372
:10493000882391F00E9470136093B4127093B512A3
:104940008093B6129093B71207C00E94C7138823B2
:1049500061F3E2E9F3E1B8C089E40E941713882308
:1049600081F00E9470132CEA35EC47E25EE30E946E
:10497000E0C66093B0127093B1128093B21290931C
:10498000B31284E40E941713882381F00E947013ED
:104990002CEA35EC47E25EE30E94A9C46093AC12B6
:1049A0007093AD128093AE129093AF1283E40E9485
:1049B0001713882351F00E9470136093A81270930C
:1049C000A9128093AA129093AB128CE40E94171341
:1049D000882341F00E9470130E9411C570939911B1
:1049E000609398118091981190919911C39734F028
:1049F00082E390E09093991180939811809198119F
:104A00009091991197FF04C01092991110929811EA
:104A100010927E1210927F121092801210928112C8
:104A2000ECE8F3E16491EF012196662331F082EC2A
:104A300093E10E94CE11FE01F5CF4091B412509146
:104A4000B5126091B6127091B7128CE195E00E9498
:104A500044902CEA35EC47E25EE36091B01270912D
:104A6000B1128091B2129091B3120E94A9C4AB010D
:104A7000BC0188E195E00E9444902CEA35EC47E2C5
:104A80005EE36091AC127091AD128091AE12909184
:104A9000AF120E94E0C6AB01BC0184E195E00E9428
:104AA00044904091A8125091A9126091AA1270915D
:104AB000AB1280E195E00E9444906AE082EC93E1C1
:104AC000DF91CF910C94CE116491EF012196662372
:104AD00031F082EC93E10E94CE11FE01F5CFEEEFB2
:104AE000F4E06491EF012196662331F082EC93E1CA
:104AF0000E94CE11FE01F5CFDF91CF910895CF93A3
:104B0000DF9380E50E941713882351F00E947013F1
:104B10006093DA127093DB128093DC129093DD12B3
:104B200089E40E941713882381F00E9470132CEAF5
:104B300035EC47E25EE30E94E0C66093D6127093C4
:104B4000D7128093D8129093D91284E40E9417133D
:104B5000882381F00E9470132CEA35EC47E25EE373
:104B60000E94A9C46093D2127093D3128093D4127E
:104B70009093D512ECE8F3E16491EF01219666235E
:104B800031F082EC93E10E94CE11FE01F5CF40910D
:104B9000DA125091DB126091DC127091DD128AEF13
:104BA00094E00E9444902CEA35EC47E25EE3609189
:104BB000D6127091D7128091D8129091D9120E947A
:104BC000A9C4AB01BC0186EF94E00E9444902CEA9A
:104BD00035EC47E25EE36091D2127091D31280917E
:104BE000D4129091D5120E94E0C6AB01BC0182EFB5
:104BF00094E00E9444906AE082EC93E1DF91CF91CF
:104C00000C94CE11CF93DF9383E50E941713C82F26
:104C1000882371F00E9470130E9411C570934D019A
:104C200060934C0121E0672B09F020E020939B1258
:104C300080E50E941713882359F020914C01309190
:104C40004D01232B11F00E94D81380939B1231C089
:104C5000C1112FC0ECE8F3E16491EF0121966623C6
:104C600031F082EC93E10E94CE11FE01F5CF8091EC
:104C70009B12811103C06EED71E002C06BED71E01B
:104C80008FED94E00E94869060914C0170914D01EF
:104C90008EEC94E00E940790EAECF4E06491EF015E
:104CA0002196662331F082EC93E10E94CE11FE0141
:104CB000F5CFDF91CF9108958F929F92AF92BF92DF
:104CC000EF92FF920F931F93CF93DF9300D000D00A
:104CD000CDB7DEB785E40E946413882321F00E94DB
:104CE000A7138B0102C000E010E083E40E9464136C
:104CF000882321F00E94A713F62E02C025E0F22E91
:104D000085E50E946413882321F00E94D813E82EC1
:104D100004C085E50E941713E82E17FD07C0812CFB
:104D2000912C96E1A92E93E4B92E06C0812C912CEA
:104D30008CE8A82E82E4B82E83E50E9464138823B1
:104D400021F00E9470134B015C01C501B4010E9467
:104D500011C50115110511F41092C002072E000CA7
:104D6000880B990B0E9444C569837A838B839C834B
:104D70002E2D4F2D602FCE0101960E941DAC0F905D
:104D80000F900F900F90DF91CF911F910F91FF9097
:104D9000EF90BF90AF909F908F9008952F923F9289
:104DA0004F925F926F927F928F929F92AF92BF923B
:104DB000CF92DF92EF92FF920F931F93CF93DF93E7
:104DC000CDB7DEB72E970FB6F894DEBF0FBECDBFBE
:104DD00041E061E081E00E9454198111B9C00BE00B
:104DE0001AE089EA94E09E878D87FE0131965F0183
:104DF00090EF892E99E0992E1F01F8016591759128
:104E000085919491ED85FE85C190D190E190F190CE
:104E1000FE87ED87A70196010E94C8C32B013C01C4
:104E2000F101608371838283938320E030E040EA64
:104E300051EC0E94A5C687FD0AC020E030E040EAA0
:104E400051E4C301B2010E94A2C418162CF4F4016B
:104E5000849118160CF472C0F101C190D190E190C8
:104E6000F1901F0120E030E040EA51ECC701B601AB
:104E70000E94A5C687FD0AC020E030E040EA51E468
:104E8000C701B6010E94A2C41816F4F4E2E9F3E1E6
:104E900064918F010F5F1F4F611103C0E2E6F4E0E0
:104EA00006C082EC93E10E94CE11F801F1CF64912B
:104EB0008F010F5F1F4F662309F44AC082EC93E114
:104EC0000E94CE11F801F3CF0C5F1F4FFFEF8F1A36
:104ED0009F0A8AE00731180709F08FCF88EEE82E85
:104EE00082E0F82E10E0F50181919191A191B191AC
:104EF0005F01F70181939193A193B1937F01812F7A
:104F00000E94FA161F5F133071F72E960FB6F894B1
:104F1000DEBF0FBECDBFDF91CF911F910F91FF90EC
:104F2000EF90DF90CF90BF90AF909F908F907F9049
:104F30006F905F904F903F902F9070C8F7FAF09469
:104F4000F7F8F094F101C082D182E282F38284CF3B
:104F50002E960FB6F894DEBF0FBECDBFDF91CF9176
:104F60001F910F91FF90EF90DF90CF90BF90AF9087
:104F70009F908F907F906F905F904F903F902F9079
:104F80000895CF93DF930E9473728823D1F0ECE8E9
:104F9000F3E16491EF012196662331F082EC93E115
:104FA0000E94CE11FE01F5CFE7E5F4E06491EF0138
:104FB0002196662331F082EC93E10E94CE11FE012E
:104FC000F5CFDF91CF910895CF92DF92EF92FF92CC
:104FD000CF93DF938AE50E946413811103C0ECE84C
:104FE000F3E13EC00E9470136B017C0120E030E0D1
:104FF00040E850EC0E94A5C687FD0AC020E030E0E2
:1050000040EA51E4C701B6010E94A2C418161CF47C
:10501000E2E9F3E10EC0C092BC02D092BD02E09280
:10502000BE02F092BF0245C082EC93E10E94CE1115
:10503000FE016491EF0121966111F6CFEBE3F4E0FC
:105040006491EF0121966623A1F182EC93E10E9425
:10505000CE11FE01F5CF82EC93E10E94CE11FE014C
:105060006491EF0121966111F6CFECE2F4E06491D6
:10507000EF012196662331F082EC93E10E94CE117C
:10508000FE01F5CF4091BC025091BD026091BE027D
:105090007091BF0289E294E00E9444906AE082EC41
:1050A00093E1DF91CF91FF90EF90DF90CF900C9440
:1050B000CE11DF91CF91FF90EF90DF90CF900895C8
:1050C000CF92DF92EF92FF92CF93DF938BE40E9417
:1050D0006413811103C0ECE8F3E136C08BE40E9455
:1050E00064138823C1F00E9470136B017C0120E0DF
:1050F00030E0A9010E94A5C687FD0AC020E030E08B
:1051000040E251E4C701B6010E94A2C4181634F46B
:10511000EAE0F4E00EC0C12CD12C76010E94E680BA
:10512000C0929209D0929309E0929409F092950965
:105130002DC06491EF012196662341F182EC93E149
:105140000E94CE11FE01F5CF6491EF0121966623F6
:1051500031F082EC93E10E94CE11FE01F5CF409137
:1051600092095091930960919409709195098FEF7C
:1051700093E00E9444906AE082EC93E1DF91CF914A
:10518000FF90EF90DF90CF900C94CE11DF91CF91F4
:10519000FF90EF90DF90CF900895CF92DF92EF9243
:1051A000FF920F931F93CF9383E50E9417138111F2
:1051B00004C00DEF11E0C0E00EC00E9470136B013F
:1051C0007C01C0E0B701A6018C2F0E949B9ECF5F9F
:1051D000C530C1F7EECFF80181918F010E941713FE
:1051E000882339F00E947013AB01BC018C2F0E9400
:1051F0009B9ECF5FC43079F7CF911F910F91FF90A5
:10520000EF90DF90CF9008951F93CF93DF93182FE7
:10521000ECE8F3E16491EF012196662331F082EC32
:1052200093E10E94CE11FE01F5CF64E582EC93E19B
:105230000E94CE11412F50E060E070E020E082EC4F
:1052400093E10E94C2BA60E282EC93E10E94CE1127
:10525000EEEDF3E06491EF012196662331F082ECEC
:1052600093E10E94CE11FE01F5CFDF91CF911F9106
:105270000895CF93DF93E0918D04F0E0E455FD4F66
:1052800080818823A1F0E0EEF2E06491EF012196A5
:10529000662331F082EC93E10E94CE11FE01F5CF3E
:1052A0006AE082EC93E1DF91CF910C94CE11DF9113
:1052B000CF910895CF92DF92EF92FF92CF93DF9339
:1052C00020910A01222309F485C0EC01C090D0028C
:1052D000D090D102E090D202F090D302A7019601C3
:1052E000688179818A819B810E94A2C487FF04C062
:1052F000C882D982EA82FB82C090D402D090D502C3
:10530000E090D602F090D702A70196016C817D81D2
:105310008E819F810E94A2C487FF04C0CC82DD825F
:10532000EE82FF82C0900B01D0900C01E0900D0145
:10533000F0900E01A7019601688179818A819B8195
:105340000E94A5C6181624F4C882D982EA82FB827C
:10535000C0900F01D0901001E0901101F090120167
:10536000A70196016C817D818E819F810E94A5C6D7
:10537000181624F4CC82DD82EE82FF82C090D8021F
:10538000D090D902E090DA02F090DB02A7019601FA
:10539000688579858A859B850E94A2C487FF04C0A1
:1053A000C886D986EA86FB86C0901301D090140186
:1053B000E0901501F0901601A701960168857985A6
:1053C0008A859B850E94A5C6181624F4C886D986AE
:1053D000EA86FB86DF91CF91FF90EF90DF90CF9030
:1053E0000895CF93DF9380E00E94D080C0EBD2E09D
:1053F000688379838A839B8381E00E94D0806C8359
:105400007D838E839F8382E00E94D0806887798726
:105410008A879B87DF91CF910895CF93DF93E1DF58
:105420006BE582EC93E10E94CE11C0EBD2E04881A3
:1054300059816A817B8122E082EC93E10E943BBB2F
:105440004C815D816E817F8184E493E00E94449071
:10545000488559856A857B8581E493E00E94449064
:105460006DE582EC93E10E94CE116AE082EC93E15B
:10547000DF91CF910C94CE11CF93C82FB2DF80EB88
:1054800092E00E94E87FCE3F51F48CE0E0EBF2E046
:10549000A9EAB4E001900D928A95E1F713C024E0E7
:1054A000C29FC0011124FC01E755FB4FDC01A05550
:1054B000BD4F8D919D910D90BC91A02D80839183C6
:1054C000A283B383CF910895CF939091E409981765
:1054D00089F0C82F0E94E680C093E409C11103C07F
:1054E0008EEFCADF04C089EA94E00E94E87FCF9182
:1054F0000C94E713CF91089580E0E6DF80EC99E00B
:105500000C9496B58F929F92AF92BF92DF92EF92DA
:10551000FF920F931F93CF93DF9300D000D0CDB7AE
:10552000DEB7182F809197048770873079F48FE465
:105530000E946413882329F00E94D813811199C016
:1055400005C08FE40E941713811193C00E94E6806A
:10555000D090E40980E0B8DF0E941C1981E00E942D
:10556000047411111CC088E50E941713F82E89E5F8
:105570000E941713082F8AE50E941713E82EF110D6
:1055800007C001110AC0811108C0F02E11E00DC042
:10559000002319F0F02E182F08C010E006C0FF24D9
:1055A000F39401E0EE24E39411E080E1E9EAF4E011
:1055B000A9E9B4E001900D928A95E1F782E50E9495
:1055C0006413882361F00E9470134B015C0120E09A
:1055D00030E0A9010E94A2C4882369F105C0812C92
:1055E000912C80E4A82EBA2C111104C0F11002C035
:1055F000002391F18092A1049092A204A092A304AE
:10560000B092A404A50194016091B1047091B20418
:105610008091B3049091B4040E94A2C487FF0BC090
:1056200019821A821B821C82BE016F5F7F4F81EA42
:1056300094E00E94DD18111105C0F11003C00111A2
:1056400006C00AC080E00E947C1A1123C1F381E0E9
:105650000E947C1A111101C0E1100E94E31C0E94FB
:10566000E7130E9407748D2D2FDF0E943B190E94C3
:105670000E200F900F900F900F90DF91CF911F9100
:105680000F91FF90EF90DF90BF90AF909F908F9021
:105690000895CF93DF93C82F0E94E680D091E4094C
:1056A00080E012DFCC2321F08C2FDF91CF91ACCDA5
:1056B0001092CD028D2F08DFECE8F3E16491EF0149
:1056C0002196662331F082EC93E10E94CE11FE0117
:1056D000F5CF6091CD0270E080E293E00E940790E8
:1056E0006AE082EC93E1DF91CF910C94CE110F939D
:1056F0001F93CF93DF93CDB7DEB72C970FB6F894F7
:10570000DEBF0FBECDBF83E50E941713882341F093
:105710000E94D813182F811105C080E0D5DE02C089
:105720001091E4098091A9049091AA04A091AB047E
:10573000B091AC0489839A83AB83BC838091AD0420
:105740009091AE04A091AF04B091B0048D839E837C
:10575000AF83B8878091B1049091B204A091B30453
:10576000B091B40489879A87AB87BC8786E50E948D
:105770001713882331F06DEA74E080EC99E00E9401
:1057800061B7812FA1DE111103C0ECE8F3E120C065
:105790008091E4098111F9CFE2E9F3E164918F018D
:1057A0000F5F1F4F662331F082EC93E10E94CE1110
:1057B000F801F4CFEEE8F4E064918F010F5F1F4F22
:1057C000662319F382EC93E10E94CE11F801F4CF25
:1057D00064918F010F5F1F4F662331F082EC93E1DC
:1057E0000E94CE11F801F4CF8091E409811103C029
:1057F00066EE71E002C062EE71E080E894E00E9423
:1058000086906AE082EC93E10E94CE114CE050E079
:1058100069EA74E0CE0101960E9483CB892B61F086
:105820002C960FB6F894DEBF0FBECDBFDF91CF919F
:105830001F910F910C940E202C960FB6F894DEBF9A
:105840000FBECDBFDF91CF911F910F9108950E94A0
:1058500080800E94E6808EEF0FDE0C94E7132F927B
:105860003F924F925F926F927F928F929F92AF92F0
:10587000BF92CF92DF92EF92FF920F931F93CF933D
:10588000DF93CDB7DEB7A0970FB6F894DEBF0FBE9B
:10589000CDBF1C017F8F6E8F498F28A3DC018D90B7
:1058A0009D90AD90BC90FB014080518062807380E0
:1058B0000023A1F0A3019201C501B4010E9455117A
:1058C000882309F4EFC120E030E040EA51E4C5014B
:1058D000B4010E94C8C34B015C012AC02FE632E12B
:1058E00043E85AEBC501B4010E94A5C687FDDAC1A1
:1058F00022E430E048E153E4C501B4010E94A2C4AF
:1059000018160CF4CFC12FE632E143E85AEBC3017D
:10591000B2010E94A5C687FDC5C122E430E04AE776
:1059200053E4C301B2010E94A2C418160CF4BAC118
:10593000E090B104F090B2040091B3041091B4046B
:105940008091190190911A01A0911B01B0911C0145
:105950008A8F9B8FAC8FBD8F809101019091020146
:10596000A0910301B09104018093190190931A0151
:10597000A0931B01B0931C0119821A821B821C8206
:10598000DE0111966D01A3019201C501B4010E94CF
:10599000EF1781E00E94DB198111E4C08091970428
:1059A00082FF11C02091BC023091BD024091BE0225
:1059B0005091BF0260E070E080E090EC0E94C8C3AC
:1059C0002B013C0106C0412C512C90E2692E91EC38
:1059D000792E4D865E866F86788AC12CD12C80E820
:1059E000E82E80E4F82EC986DA86EB86FC86BE01B6
:1059F000675F7F4FCE010D960E94DD1810914E0912
:105A000010924E0982E038DD0E94E71312FD05C0B6
:105A100060E070E080EC9FE75EC08090B104909001
:105A2000B204A090B304B090B404C982DA82EB82CD
:105A3000FC8220E030E040E450E4C501B4010E9463
:105A4000C9C36D837E838F839887BE016F5F7F4F4D
:105A5000CE0105960E94DD184D825E826F827886A7
:105A600080E090E0A0E0B0E489839A83AB83BC83BC
:105A7000BE016F5F7F4FCE0105960E94DD18109129
:105A80004E0910924E0982E0F7DC0E94E71312FFE4
:105A9000BFCF20E030E040E450E46091B104709169
:105AA000B2048091B3049091B4040E94E0C66B01EB
:105AB0007C01A5019401C501B4010E94C9C39B01E9
:105AC000AC01C701B6010E94C9C32DEC3CEC4CE40B
:105AD0005EE30E94E0C62091BC023091BD0240917D
